:020000040000FA
:020000000528D1
:06000A0083160730880098
:100010000030860007309F0083128800A10007305F
:10002000A1050130210603191F28023021060319FA
:10003000282803302106031936283F200C280314F2
:10004000803086004620860C4620061C23280C287B
:100050000314013086004620860D4620861F2C287A
:100060000C2882078134423424341834A00120083B
:100070003120A00A86004620061E37280C28FF30B3
:10008000860046200030860046200C280030A20062
:06009000A20B4828080045
:00000001FF
